:020000040800F2
:10000000C0060020AD010008272B000823210008AE
:10001000252B0008F90900085132000800000000F3
:10002000000000000000000000000000C72D0008D4
:10003000110A000800000000C52D0008C92D0008A5
:10004000C7010008C7010008C7010008C701000870
:10005000C7010008C7010008130A0008C70100080B
:10006000C7010008C7010008C7010008C701000850
:10007000C7010008C7010008C7010008C701000840
:10008000C7010008C7010008C70100080000000000
:10009000000000000000000000000000C701000890
:1000A000C7010008712E0008C7010008C701000839
:1000B000C7010008C7010008C7010008C701000800
:1000C000C7010008C7010008C7010008C7010008F0
:1000D000C7010008C7010008C701000800000000B0
:1000E000C7010008C7010008C701000800000000A0
:1000F000000000000000000000000000C701000830
:1001000000000000C7010008C7010008C70100087F
:1001100000000000000000000000000000000000DF
:10012000C7010008C7010008C7010008C70100088F
:10013000C7010008000000000000000000000000EF
:10014000000000000000000000000000C7010008DF
:10015000C7010008C7010008C7010008C70100085F
:10016000C7010008C70100080000000000000000EF
:10017000000000000000000000000000000000007F
:1001800000000000C701000800000000000000009F
:10019000C7010008DFF810D000F030FB004800472E
:1001A000A53F0008AFF30080C00600200648804746
:1001B00006480047FEE7FEE7FEE7FEE7FEE7FEE74C
:1001C000FEE7FEE7FEE7FEE7612E00089501000866
:1001D0002DE9F05F0546002092469B46884606467C
:1001E000814640241BE0284641464746224600F00F
:1001F0001FFA53465A46C01A914110D31146184669
:10020000224600F006FA2D1A67EB01084F462246F7
:100210000120002100F0FDF917EB00094E41201EDE
:10022000A4F10104DFDC484631462A464346BDE8D6
:10023000F09FD2B201E000F8012B491EFBD27047BB
:100240000022F6E710B513460A4604461946FFF7A2
:10025000F0FF204610BD2DE9FE4F804681EA0300E5
:10026000C00F0C46009021F0004123F00045B8EB90
:100270000200A94105D24046214690461C460B4645
:10028000024623F00040104347D0270DC7F30A0071
:10029000C3F30A510290401A019040286BDAC3F36D
:1002A000130040F4801B0098924620B10023D2EB4B
:1002B000030A63EB0B0B01985946C0F1400250460C
:1002C00000F0A7F906460D4650465946019A00F03F
:1002D000BFF910EB08006141002487EA115284EA5B
:1002E000E7731A4340D0009A62B3019A012A4FEA99
:1002F000075215DC001B61EB02014FF0004202EADD
:100300000752CDE90042001C41F5801132462B46D0
:1003100000F0F6F903B0BDE8F08F40462146F9E75A
:10032000001B61EB0201001C41F5801300185B41CA
:100330002018A2F5001747EB030140EAD570B61963
:100340006D4111E06D084FEA360645EAC0754FEA87
:100350000752001B61EB0201001C41F580114908A6
:100360004FEA30000019514132462B4603B0BDE838
:10037000F04F00F0B6B90098012240000023D0EB06
:10038000020263EBE073009821464FEAE074B8EB99
:10039000000061EB0401E9E783F000435BE781F0D3
:1003A000004158E72DE9FE4F81EA030404F00044C0
:1003B00021F0004100944FF0000B23F0004350EA7D
:1003C00001045ED052EA03045BD0C3F30A54C1F3C4
:1003D0000A552C44A4F2F3340194A0FB0254C1F357
:1003E000130141F48011C3F3130343F4801301FBA1
:1003F000024400FB034E840A970A44EA815447EA08
:100400008357A4FB076802958D0A05FB07854FEA11
:10041000932C04FB0C542705029D4FEA065847EA2B
:100420001637B5EB08056EEB070C870E920E47EA00
:10043000811742EA8312A7FB0201B6EB0B0164EBC2
:1004400000042B0D43EA0C335E1844EB1C50DA46D3
:100450005146E7FB0201C5F313044FEA0B3343EAAD
:1004600014534FEA0432019C43EA0603A4F10C043E
:100470000294009CCDE900B400F042F903B0BDE85D
:10048000F08F00200146F9E72DE9F04D81EA0304E1
:1004900004F0004B21F0004514464FF0000A23F011
:1004A000004150EA050220D054EA01021DD0C5F3F4
:1004B0000A570246C5F31303C1F31300C1F30A56EA
:1004C00040F4801543F48013A7EB0608101BD646B2
:1004D00008F2FD3873EB050002D308F1010801E0D2
:1004E00092185B41B8F1000F03DA00200146BDE825
:1004F000F08D00204FF48011064684460EE0171B55
:1005000073EB050705D3121B63EB050306434CEAA7
:10051000010C49084FEA300092185B4150EA01078C
:10052000EDD152EA030012D082EA040083EA050109
:10053000084305D0101BAB4106D20122002306E080
:1005400000224FF0004302E06FF0010253101AEB5B
:1005500006004CEB085110EB0A0041EB0B01BDE823
:10056000F04D00F0BEB80EB5C10F80EAE07008444F
:10057000CA07002140F233438DE80E000A460B46BD
:1005800000F0BEF803B000BD00F0004230F00040C3
:100590000AD0C10D01F56071C0F3160042EA0151A5
:1005A000C20840071143704700200146704701F020
:1005B000004330B421F0004150EA010206D00A0D98
:1005C000A2F56072C1F31301002A02DC30BC0020E6
:1005D0007047440F44EAC104C100E01830BC00EB8E
:1005E000C25000F047B830B50B460146002020222B
:1005F000012409E021FA02F59D4205D303FA02F530
:10060000491B04FA02F52844151EA2F10102F1DC8F
:1006100030BD202A04DB203A00FA02F100207047A6
:100620009140C2F1200320FA03F319439040704730
:10063000202A04DB203A21FA02F00021704721FA37
:1006400002F3D040C2F1200291400843194670479E
:10065000202A06DBCB17203A41FA02F043EAE07386
:1006600006E041FA02F3D040C2F120029140084373
:10067000194670470029A8BF7047401C490008BFB1
:1006800020F00100704710B4B0FA80FC00FA0CF0C2
:1006900050EA010404BF10BC704749B1CCF12004FA
:1006A00021FA04F411FA0CF118BF01212143084387
:1006B000A3EB0C01CB1D4FEA00614FEA102042BFB3
:1006C000002010BC704700EBC35010440029A4BFA9
:1006D00010BC7047401C490008BF20F0010010BC4E
:1006E000704710B5141E73F1000408DA401C41F184
:1006F000000192185B411A4301D120F0010010BDA6
:100700002DE9F04D92469B4611B1B1FA81F202E01B
:10071000B0FA80F220329046FFF77BFF04460F4686
:1007200040EA0A0041EA0B0153465A46084313D0F7
:10073000114653EA010019D0C8F140025046FFF7B4
:1007400077FF05460E46504659464246FFF761FF81
:10075000084305D0012004E020463946BDE8F08D6D
:100760000020054346EAE0762C4337430A986305A8
:10077000E40AA0EB08000022FD0A44EA47540A30CC
:1007800002D500200146E9E7010510196941DDE9BC
:10079000084500196941BDE8F04DA2E7C1F30A52CE
:1007A000C1F3130140F2FF3341F480119A4202DA9F
:1007B00000200146704740F233439A42A2F233428E
:1007C00002DC5242FFF734BFFFF723BF30B5041EEF
:1007D00071F1000404DB4FF00044404264EB01017E
:1007E000141E73F1000405DB1C464FF00043524217
:1007F00063EB0403994208BF904230BD064C074D9D
:1008000006E0E06840F0010394E8070098471034E0
:10081000AC42F6D3FFF7C2FC6041000880410008FB
:1008200070B58C1810F8015B15F0070301D110F8B2
:10083000013B2A1106D110F8012B03E010F8016BDF
:1008400001F8016B5B1EF9D12B0705D40023521E62
:100850000DD401F8013BFAE710F8013BCB1A921CCA
:1008600003E013F8015B01F8015B521EF9D5A142C8
:10087000D8D3002070BD000070B52C4C2DED028B3C
:10088000D4ED190A94ED1B8A80EE880A10EE100A46
:10089000FFF77AFE41EC100B02F01AFD9FED241BCE
:1008A00051EC100B53EC112BFFF77CFDFFF77FFE93
:1008B0006067D4ED1A0A054680EE880A10EE100A29
:1008C000FFF762FE41EC100B02F002FD9FED1A1BD8
:1008D00051EC100B53EC112BFFF764FDFFF767FE93
:1008E0002067206EFFF750FE41EC180B2846FFF7FB
:1008F0004BFE41EC100BB0EE481AF0EE681A01F016
:10090000F9FDE06DFFF740FE41EC180B206FFFF79B
:100910003BFEB0EE481AF0EE681ABDEC028B41ECDB
:10092000100BBDE8704001F083BE00000000002005
:10093000D9CEF753E3A54CC0D9CEF753E3A54C402D
:1009400010B5642301222849284801F031FB2648CC
:10095000401E4178412904D0422905D043293FD087
:1009600006E0B8EE080A01E0B0EE080A80ED0C0AD5
:100970001D4C7F34606FFFF707FE41EC100B1CA18C
:1009800053EC102BA4F12C0002F064FC642304222D
:10099000A4F12C01154801F06BFB64230222A4F1A1
:1009A0007E01124801F064FB2069FFF7EDFD41EC88
:1009B000100B0FA153EC102BA4F1280002F04AFCFD
:1009C00064230422A4F12801084801F051FBA4F19A
:1009D0007E016423BDE810400222044801F048BBB8
:1009E0009FED040AC2E70000010000207802002009
:1009F0002566000000000000FEE700000348D0E983
:100A00001A211144C16600218166704780000020D0
:100A10007047012000F02EB870B5044600F02EF9A2
:100A20000546601C02D004480078044400F026F912
:100A3000401BA042FAD370BD3C01002070B50128D4
:100A400012D10A4D0221284600F00EF9084C10B9C7
:100A5000A06E401CA0660221284600F005F901287E
:100A600002D1A06E401EA06670BD000000000240D2
:100A700080000020044910B50A68024202D00860D4
:100A8000FFF7DCFF10BD0000143C01402DE9F84FDA
:100A9000DFF8B4A1002201240AF1040B03254FF072
:100AA0000F090BF1040E00BF0B6804FA02F6334085
:100AB000B34272D10F7907F00307012F01D0022F43
:100AC00016D187684FEA420805FA08FC27EA0C07A6
:100AD000D1F80CC00CFA08FC4CEA070CC0F808C0AE
:100AE0004768B7430E79C6F3001696403E4346600A
:100AF0000E79F643B6070DD0C768560005FA06FC16
:100B000027EA0C07D1F808C00CFA06FC4CEA070CDF
:100B1000C0F80CC00E7906F00306022E10D1D608DC
:100B200000EB8608D8F8206057074FEAD76C09FA1F
:100B30000CF7BE430F6907FA0CF73743C8F820706B
:100B400006684FEA420C05FA0CF7BE430F7907F02E
:100B5000030707FA0CF7374307604E68F6006DD5B8
:100B60003A4E376847F480473760366822F003070B
:100B700006F480460096364E07EB060CDCF8086853
:100B800097073F0F09FA07F826EA0806DFF8C4803E
:100B9000404503D14FF000081EE04FE0DFF8B88079
:100BA000404502D14FF0010816E0DFF8B080404523
:100BB00002D14FF002080FE0DFF8A480404502D1D7
:100BC0004FF0030808E0DFF89C80404502D14FF069
:100BD000040801E04FF0070808FA07F848EA060899
:100BE000CCF80888DAF800605746D1F804C09E4374
:100BF0005FEACC3C00D51E433E60DBF800605F46F8
:100C0000D1F804C09E435FEA8C3C00D51E433E6091
:100C1000DEF800607746D1F804C09E435FEACC2C32
:100C200000D51E433E60084F0C373E68D1F804C023
:100C30009E435FEA8C2C00D51E433E60521C102A56
:100C4000FFF432AFBDE8F88F003C01404438024069
:100C50000030014000000240000402400008024051
:100C6000000C0240001002400069084000D0012042
:100C700070470AB1816170470904FBE70148806849
:100C8000704700003C01002070B5040025D094F8A6
:100C90003D00002520B984F83C50204600F04CFA75
:100CA000242084F83D002068016821F001010160E2
:100CB0002068016841F4004101602068016821F466
:100CC0000041016000F0A0FB4D4A6168914201D8EB
:100CD0004C4900E04C49884201D2012070BD4B498B
:100CE0002368B0FBF1F15E6826F03F060E435E60BC
:100CF0006368934206D94FF4967359434FF47A735D
:100D0000B1FBF3F12368491C1E6A26F03F0631430C
:100D100019626168914210D84900401EB0FBF1F29F
:100D2000521CC2F30B02042A01D2042022E0B0FBC1
:100D3000F1F0401CC0F30B001CE0A268F2B301EB21
:100D4000C10303EB0116431EB3FBF6F35B1C43F434
:100D500080431B0549D092B301EBC10202EB0111A4
:100D6000401EB0FBF1F0401CC0F30B0040F480408B
:100D700040F400402168CA694CF6FF739A4310435F
:100D8000C861D4E9071001432068026822F0C0025C
:100D900011430160D4E9030101432068826848F2ED
:100DA000FF339A4311438160D4E905010843216868
:100DB000CA6822F0FF021043C86001E00EE016E0AE
:100DC0002068016841F0010101602564202084F859
:100DD0003D00256384F83E50002070BD01EB4106C4
:100DE000431EB3FBF6F35B1CB3E70120C2E701EB44
:100DF0004101401EB0FBF1F0401CC0F30B00B7E70F
:100E0000A086010080841E0000093D0040420F00C2
:100E10002DE9FF4F83B09A46DDE9119793460446CA
:100E2000DDF84080FFF72AFF054694F83D002028B2
:100E300070D11923012271492046009501F082FAF0
:100E40000028F5D194F83C00012863D0012084F8F3
:100E50003C0020680168C90703D1016841F0010125
:100E600001602068016821F400610160222084F89B
:100E70003D00402084F83E0000262664C4F824800B
:100E8000A4F82A90608D20855D48E062CDE9007568
:100E900053465A462046049901F05CF900287CD15B
:100EA000208DD0B1012821D00228206824D04169AA
:100EB00080690090208D032869D801282BD05149E2
:100EC00002283B464FF00002009559D08846204644
:100ED00001F038FA002860D13CE02068416981695E
:100EE0000091016841F40071016077E020680168B9
:100EF00021F480610160F0E7016821F48061016004
:100F00002068016841F400610160206841698069DE
:100F1000009063E06FE02A463946204601F091FADE
:100F200098BB20680069616A08704EE0206801681B
:100F300041F40071016020680069616A0870606AAC
:100F4000401C6062218D491E2185618D491E61858D
:100F5000216838E02068016821F480610160206820
:100F60000069616A0870606A401C6062208D401EE2
:100F70002085608D401E60853B46002241460095DD
:100F8000204601F0DFF900B9D0E706E0FFE72A4686
:100F90003946204601F055FA18B1012007B0BDE8E6
:100FA000F08F20680069616A0870606A401C6062A6
:100FB000218D491E2185618D491E618521684A69FF
:100FC000D24352070AD409690170606A401C60620A
:100FD000208D401E2085608D401E6085208D00285C
:100FE0007FF468AF202084F83D0084F83E6084F8E8
:100FF0003C600020D2E70220D0E700000200100091
:101000000000FFFF040001002DE9FF4F83B09A4666
:10101000DDE9119793460446DDF84080FFF72EFE88
:10102000054694F83D0020287FD11923012240492C
:101030002046009501F086F9002876D194F83C000E
:10104000012872D0012084F83C0020680168C9079B
:1010500003D1016841F0010101602068016821F4B9
:1010600000610160212084F83D00402084F83E00AA
:1010700000262664C4F82480A4F82A90608D208578
:101080002C48E062CDE9007553465A462046049943
:1010900001F0DEF870B930E02A463946204601F00A
:1010A00003FA58B1206C042804D12068016841F487
:1010B00000710160012007B0BDE8F08F606A21680F
:1010C00000780861606A401C6062218D491E89B207
:1010D0002185628D521E628522685369DB435B075E
:1010E0000BD469B100781061606A401C6062208D89
:1010F000401E2085608D401E6085208D0028CBD14C
:101100002A463946204601F0F7F80028CAD154F89B
:101110003D0B016841F400710160202004F81E09B4
:10112000E67766770020C6E7FFE70220C3E7000006
:10113000020010000000FFFF10B586B00446142125
:101140006846FFF77DF813492068884220D112488D
:10115000016841F0020101600068694600F0020088
:101160000590C020009012200190012002900320E1
:101170000390042004900948FFF788FC06481030CB
:10118000016841F400110160006800F4001005904E
:1011900006B010BD00540040303802400004024048
:1011A0000248816802781144816070473C01002048
:1011B0000B4810B5016841F400710160016841F409
:1011C00080610160016841F480710160032000F0DA
:1011D0006FF8002000F006F800F024F8002010BDA1
:1011E000003C024070B50D4D04464FF47A712878EA
:1011F000B1FBF0F00A490968B1FBF0F000F00CFB1C
:1012000048B9102C07D200222146501E00F030F8B9
:1012100000206C6070BD012070BD00003C0100200A
:10122000480100200A4808B5016841F48041016086
:10123000006800F4804000900548001F016841F0FC
:1012400080510160006800F08050009008BD0000EF
:1012500044380240002809DB00F01F0201219140C0
:101260004009800000F1E020C0F800117047000044
:10127000F0B40E4B1B680C46C3F30223C3F1070501
:10128000042D00D90425191D072901D2002300E0EF
:10129000DB1E012606FA05F1491E214099409E40B9
:1012A000761E16403143F0BC02F000B80CED00E0B1
:1012B000064900F0070208684FF6FF03184040EAAD
:1012C0000220034A10430860704700000CED00E064
:1012D0000000FA052DE9F0470E46050065D0DFF85D
:1012E0001481D8F80000F7B200F00700B04207D22E
:1012F00088F80070D8F8000000F00700B04254D120
:1013000028683D4C810712D5400703D5206840F47A
:10131000E05020602878000703D5206840F4604042
:1013200020602068A96820F0F00008432060287839
:10133000C0072DD0304968680839012812D002282A
:1013400013D0032811D00968890700292DDA2168F4
:1013500021F0030101432160FFF790FC814641F237
:10136000883A0EE009688903EFE709688901ECE72C
:10137000FFF784FCA0EB0901514502D90320BDE829
:10138000F0872068696800F00C00B0EB810FEFD1A6
:10139000D8F80010404601F00701B14207D90770A4
:1013A000006800F00700B04201D00120E7E728788C
:1013B000400705D52068E96820F4E0500843206024
:1013C0002878000706D52068296920F4604040EAA3
:1013D000C100206000F038F82168084AC1F3031109
:1013E000515CC8400649086006480068FFF7FAFEED
:1013F0000020C4E7003C024008380240AC4000082E
:10140000480100204001002004480549006809689F
:10141000044AC1F38221515CC84070474801002052
:1014200008380240BC4000080448054900680968C3
:10143000044AC1F34231515CC84070474801002062
:1014400008380240BC400008154810B5006810F08C
:101450000C02144813D01449042A0FD0082A0ED1C4
:101460000F4C241F2268236802F03F025B0207D55D
:101470002068C0F38810A0FB010106E0084610BDFB
:101480002168C1F38811A1FB00010023FEF7A0FE33
:101490002168C1F30141491C4900B0FBF1F010BDC6
:1014A000083802400024F40040787D012DE9F84F0F
:1014B00004006ED02078DFF84C93C007A9F1040532
:1014C0004AD009F104000168C1F38101012908D063
:1014D0000068C0F3810002280AD1D9F80000400258
:1014E00006D52868800337D560680028E1D033E04E
:1014F0006068B0F5803F10D0B0F5A02F286810D0FC
:1015000020F480302860286820F4802028606068FB
:10151000A8B1FFF7B3FB06460DE0286840F4803021
:10152000F4E740F480202860F7E700BFFFF7A6FB50
:10153000801B642873D828688003F7D50CE0FFF778
:101540009DFB064605E000BFFFF798FB801B642863
:10155000F0D828688003F7D42078DFF8AC828007C1
:101560004FF0000A3ED5A748001D016811F00C0F8E
:1015700008D00068C0F3810002280BD1D9F8000020
:10158000400207D42868800716D5E068012800D1FA
:1015900012E033E1E068B8B10120C8F80000FFF7BD
:1015A0006DFB064605E000BFFFF768FB801B0228C5
:1015B000C0D828688007F7D52868216920F0F8008E
:1015C00040EAC10028600DE0C8F800A0FFF756FB14
:1015D000064604E0FFF752FB801B02281FD828684C
:1015E0008007F7D42078000722D5864F87486169A5
:1015F000703771B101210160FFF740FB064604E03E
:10160000FFF73CFB801B022809D838688007F7D514
:101610000EE0C0F800A0FFF731FB064605E082E0CF
:10162000FFF72CFB801B02287DD838688007F7D491
:101630002078400768D5DFF8CCB100270BF13C0BD0
:10164000DBF80000C0000BD4DBF8001041F0805143
:10165000CBF80010DBF80000012700F0805000906C
:101660006B4E3068C00510D4306840F48070306034
:10167000FFF704FB009005E0FFF700FB0099401A1C
:10168000022850D83068C005F6D55E4EA0686C368A
:1016900001280FD00528306810D020F001003060FC
:1016A000306820F004003060A068B8B1FFF7E6FAB7
:1016B00000900FE0306840F00100F4E740F00400D3
:1016C0003060F7E7FFF7DAFA0099411A41F2883003
:1016D000814266D830688007F4D50EE0FFF7CEFA75
:1016E000009007E0FFF7CAFA0099411A41F28830EA
:1016F000814256D830688007F4D42FB1DBF800104F
:1017000021F08051CBF80010A069C8B33D49091DF4
:101710000968C1F3810102294AD00228504607D046
:10172000C8F8600000E03CE0FFF7A8FA04463BE0A0
:101730004746C8F86000FFF7A1FA064605E000BF7B
:10174000FFF79CFA801B02282BD828688001F7D469
:10175000D4E907010843A16A2E4A490802EB014176
:10176000626A41EA8211084394F82C1040EA016150
:10177000C9F8001001203866FFF780FA044606E039
:101780003EE000BFFFF77AFA001B022809D828685C
:101790008001F7D534E000BFFFF770FA001B022884
:1017A00002D90320BDE8F88F28688001F4D427E02F
:1017B0000128F7D0D9F80000E26900F480019142D5
:1017C0001CD1226A00F03F01914217D147F6C07147
:1017D000626A0140B1EB821F10D1A26A4FF0FF3361
:1017E00000F4403103EB5202B1EB024F06D194F802
:1017F0002C1000F07060B0EB016F01D00120D1E738
:101800000020CFE70438024000004742800E4742E4
:10181000007000400000FFFF10B5401EB0F1807F57
:1018200001D3012010BD4FF0E02460610F2160174B
:1018300001F03CFD0020A06107202061002010BDC8
:101840007047704770B590F83C20012A2CD00124D5
:1018500080F83C40022280F83D2003685A689D6869
:1018600022F070060A6832435A60104B02689A42AE
:101870000ED0B2F1804F0BD00D4B9A4208D00D4BD9
:101880009A4205D00C4B9A4202D00C4B9A4204D19A
:10189000496825F080031943916080F83D4000219C
:1018A00080F83C10084670BD022070BD0000014069
:1018B0000004004000080040000C004000400140CF
:1018C00010B5040003D094F83D0010B107E00120EA
:1018D00010BD002084F83C00204600F01FF80220D4
:1018E00084F83D00211D206801F0C8FA012084F829
:1018F000460084F83E0084F83F0084F8400084F8F5
:10190000410084F8420084F8430084F8440084F8DD
:10191000450084F83D00002010BD000008B50168B6
:101920001748814208D11748016841F0040101605D
:10193000006800F004000BE01248134A001D9142B9
:1019400008D1016841F480310160006800F4803002
:10195000009008BD0D4A9142FBD1016841F400316D
:1019600001600068002200F4003000901146192048
:10197000FFF77EFCBDE808401920FFF76BBC0000B4
:10198000000800404038024000400140004401404F
:1019900090F83D10012901D001207047022180F804
:1019A0003D100168CA6842F00102CA6000680E4931
:1019B00088420ED0B0F1804F0BD00C49884208D03D
:1019C0000B49884205D00B49884202D00A49884217
:1019D00004D1816801F00701062903D0016841F0B4
:1019E0000101016000207047000001400004004038
:1019F00000080040000C00400040014070B5044663
:101A000090F83C00012817D0012584F83C500220B2
:101A100084F83D002068826822F0770222F47F4239
:101A200082600868502830D00DDC20284DD005DCBD
:101A300098B310283BD148E0022070BD302844D034
:101A4000402834D139E0602828D0702806D0B0F57D
:101A5000805F2CD0B0F5005F29D10AE0CB68D1E9D6
:101A60000121206801F063FA2068816841F0770164
:101A700009E0CB68D1E90121206801F058FA20681B
:101A8000816841F48041816011E0CA68496820683A
:101A900001F002FB5021206807E016E0CA6849689F
:101AA000206801F00AFB6021206801F04AFA84F8FE
:101AB0003D50002084F83C0070BDCA684968206829
:101AC00001F0EAFA40212068EFE72268014610465B
:101AD000EBE7704770B50446006801694FF00005F8
:101AE000C943890715D4C168C943890711D4E91EC0
:101AF000016101202077206880698007204602D09C
:101B0000FFF7E7FF04E000F0DBF8204600F06AF999
:101B1000257720680169C943490717D4C168C943BB
:101B2000490713D46FF00401016102202077206877
:101B3000806910F4407F204602D0FFF7CAFF04E01E
:101B400000F0BEF8204600F04DF9257720680169C5
:101B5000C943090716D4C168C943090712D46FF0F5
:101B600008010161042020772068C06980072046B1
:101B700002D0FFF7AEFF04E000F0A2F8204600F02C
:101B800031F9257720680169C943C90617D4C168AE
:101B9000C943C90613D46FF01001016108202077F2
:101BA0002068C06910F4407F204602D0FFF791FF03
:101BB00004E000F085F8204600F014F9257720684D
:101BC0000169C943C90708D1C168C943C90704D11C
:101BD000891E0161204600F05FF920680169C94350
:101BE000090609D4C168C943090605D46FF080010C
:101BF00001612046FFF724FE20680169C9434906B8
:101C000009D4C168C943490605D46FF04001016198
:101C1000204600F065F920680169C94389060BD4A4
:101C2000C168C943890607D46FF0200101612046CD
:101C3000BDE87040FFF705BE70BD000010B586B06E
:101C4000044614216846FEF7FBFA2368174C00216E
:101C500017480222A34210D1036843F00203036035
:101C6000006800F002000590D0010090CDE901214C
:101C7000CDE9031269460F4813E00F4CA34212D17D
:101C8000036843F001030360006800F00100059061
:101C900004200090CDE901210320CDE9031069461D
:101CA0000648FEF7F3FE06B010BD00000008004035
:101CB0003038024000040240004001400000024071
:101CC000704770B5044690F83C000D4601280AD0D4
:101CD000012084F83C0042B1042A18D0082A2AD0F6
:101CE0000C2A4DD139E0022070BD206801F032F994
:101CF0002068816941F0080181612068816921F0D3
:101D000004018161206881692A69114311E020681A
:101D100001F048F92068816941F40061816120681F
:101D2000816921F480618161206881692A6941EAC1
:101D30000221816124E0206801F060F92068C16916
:101D400041F00801C1612068C16921F00401C1614D
:101D50002068C1692A69114311E0206801F07AF90D
:101D60002068C16941F40061C1612068C16921F442
:101D70008061C1612068C1692A6941EA0221C161AB
:101D8000002084F83C0070BD10B5040003D094F826
:101D90003D0010B107E0012010BD002084F83C0098
:101DA000204600F01EF8022084F83D00211D206826
:101DB00001F064F8012084F8460084F83E0084F8BD
:101DC0003F0084F8400084F8410084F8420084F821
:101DD000430084F8440084F8450084F83D00002066
:101DE00010BD70477047000010B50446022249B18B
:101DF00004290ED0082913D094F84100012816D0E8
:101E0000012010BD94F83E000128F9D184F83E204D
:101E10000FE094F83F000128F2D184F83F2008E059
:101E200094F840000128EBD184F8402001E084F8C8
:101E300041200122206801F06DF812492068884293
:101E400003D1426C42F400424264206888420ED0C2
:101E5000B0F1804F0BD00C49884208D00B49884222
:101E600005D00B49884202D00A49884204D18168D2
:101E700001F00701062903D0016841F0010101606A
:101E8000002010BD00000140000400400008004098
:101E9000000C0040004001400F4910B5884219D1A4
:101EA00000F0B2FCFEF7E8FC00F03EFE00F070FE31
:101EB000FEF7A4FD09498868401C8860042803DBFC
:101EC0000020886000F0A6FE00F0FEFEBDE8104095
:101ED00000F03ABF10BD00003002002000010020D9
:101EE000704770B5040004D094F83D00002510B18F
:101EF00006E0012070BD84F83C50204600F022F836
:101F0000242084F83D002068C16821F40051C1609C
:101F1000204601F0E5F82068016921F49041016153
:101F20002068416921F02A0141612068C16841F4BB
:101F30000051C1602564202084F83D0084F83E00F3
:101F4000002070BD10B586B0044614216846FEF727
:101F500077F914492068884221D11348002102688A
:101F600042F010020260006800F0100005900E4878
:101F70001438026842F001020260006800F00100BB
:101F800005904FF4C06000900220CDE901010320CC
:101F900003900720049069460448FEF777FD06B0D9
:101FA00010BD000000100140443802400000024013
:101FB0002DE9F84F044690F83E009A4616460D4625
:101FC000202853D1FDB1F6B194F83C0001284DD042
:101FD000012084F83C0000272764222084F83E007A
:101FE0002763FEF74BFEA6858146E685A0684FF481
:101FF0008058404501D1206940B12E465FF0000570
:1020000084F83C7027E00120BDE8F88F0026F7E750
:102010004B46002220212046CDF800A001F0E6F832
:1020200008B10320F0E726B1A06840451BD038B1C5
:1020300008E020684068C0F3080025F8020B07E0BC
:10204000206980B12068406800F07F0006F8010B2D
:10205000E08D401EE085E08D0028D9D1202084F855
:102060003E000020D0E720684068EFE70220CBE781
:102070002DE9F843044690F83D001F4616460D46EC
:1020800020284CD1C5B1BEB194F83C00012846D0FF
:10209000012084F83C004FF00008C4F84080212063
:1020A00084F83D00FEF7EAFDA6848146E684A06838
:1020B000B0F5805F03D004E00120BDE8F88320691B
:1020C00028B12E465FF0000584F83C800EE0002623
:1020D000FAE78021204601F089F8A0B9AEB116F8E0
:1020E000010B21684860E08C401EE084E08C4B4688
:1020F0004FF0000200970028EBD14FF0400120463E
:1021000001F074F830B10320D7E735F8020BC0F3C3
:102110000800E6E7202084F83D000020CDE70220FB
:10212000CBE7FEE701684A69D24352050FD46FF44A
:1021300080624A61002140F8301F2022427381737F
:10214000026942F00402026101730120704700201D
:10215000704700002DE9F84F0446006889460B9D42
:1021600001689846174641F4806101602068016863
:1021700041F48071016000954FF0011B0022594627
:1021800020460A9B00F0DEF84FF4007A40B1206848
:102190000068C00501D5C4F840A00320BDE8F88F51
:1021A000216809F0FE0008612B46284920460A9A5A
:1021B00000F0FCF8F0BB20684169806900902A4675
:1021C00020460A9900F070F940B1206C04283AD1F9
:1021D0002068016841F40071016034E0FEB2B8F19A
:1021E000010F09D02168380A08612A4620460A9959
:1021F00000F05AF90028E8D1206806612A462046F6
:102200000A9900F051F90028DFD12068016841F4F3
:102210008071016000950022594620460A9B00F01B
:1022200091F80028B3D1216809F0FF0040F00100C7
:10223000086100E007E02B46044920460A9A00F0B6
:10224000B5F80028AAD00120A8E70000020001008C
:102250002DE9F843044600680D46DDE9089701685A
:102260009846164641F4807101604B4600224FF0BB
:1022700001112046009700F065F848B12068006819
:10228000C00502D54FF4007020640320BDE8F88338
:10229000216805F0FE0008613B464A461549204684
:1022A00000F084F888B920684169806900903A4656
:1022B0004946204600F0F8F848B1206C042804D1C3
:1022C0002068016841F4007101600120DEE7F5B289
:1022D000B8F1010F09D02168300A08613A46494631
:1022E000204600F0E1F80028E7D1206805610020D1
:1022F000CCE700000200010070B516460D4604460A
:102300000DE02046FFF70EFF08B1012070BD681CEC
:1023100005D0FEF7B3FC801BA84207D835B1206872
:102320004069C0434007ECD4002070BD002044F851
:10233000300F20216173A073216941F020012161D8
:102340002073E2E72DE9F0471E4690460D4604460D
:10235000C1F30747DDF8209008E0701C06D0FEF7B7
:102360008DFCA0EB0900B0420FD876B12068012F98
:1023700018D0806925EA00000004000C14D0002168
:102380004145EAD00020BDE8F087002044F8300F36
:1023900020216173A073216941F020012161207324
:1023A0000120F0E74069E5E70121E9E72DE9F04781
:1023B0009A4691460E46044600254FF02008C1F388
:1023C000074725E020684069C043400514D42068D1
:1023D000016841F40071016021686FF48060486118
:1023E000256384F83D8084F83E50206C40F0040062
:1023F000206484F83C501FE0B9F1FF3F08D0FEF79D
:102400003DFCA0EB0A0149450CD8B9F1000F09D0F9
:102410002068012F13D0806926EA00000004000C18
:102420000BD0CFE744F8305F84F80D80A5732069A6
:1024300040F02000206125730120BDE8F08740694D
:10244000EAE72DE9F041002590460E460446202794
:1024500017E04069C043C0060CD454F8301B6FF03D
:102460001000486144F810596777A577206A206208
:10247000257717E0FEF702FCA0EB0800B04208D871
:102480003EB120684169C9434906E2D40020BDE855
:10249000F08144F8305F6773A573206940F0200035
:1024A000206125730120F2E770B516460D460446FB
:1024B0000DE02046FFF736FE08B1012070BD681C14
:1024C00005D0FEF7DBFB801BA84207D835B120689A
:1024D0004069C0430006ECD4002070BD002044F8E1
:1024E000300F20216173A073216941F02001216127
:1024F0002073E2E770B54D4E2DED0A8BB0EE419A98
:10250000F0EE619AB0EE40BAF0EE60BA96ED07CA0E
:102510001CEE100AFEF738F806F1800441EC180BA7
:10252000D4ED03AA1AEE900AFEF72EF853EC192BFD
:10253000FDF735FF53EC182BFDF734FF41EC180B7A
:102540002069FEF721F853EC182BFDF784FEFEF707
:102550002EF804F19C0596ED040A95ED018AD5ED5F
:10256000029AD5ED008A30EE480A95ED039A0AEEFC
:10257000100A30EE690A09EE4C8A49EE4C9A1AEEBE
:10258000100A40EE0C8A96ED050A00EE0C9AFDF753
:10259000FBFF53EC1B2BFDF702FFFEF708F800EEE4
:1025A000100A84ED020AD6ED060A78EEA01AC4EDF0
:1025B000071A307800EE900AF8EE600A68EEA02A5A
:1025C00000EE900AC4ED052AF8EE600A82EEA11A28
:1025D00029EEA02A84ED062AC2EE210AF0EE681A3E
:1025E00086ED1E1A41EE681A01EE00AAC6ED1F0A1A
:1025F000C4ED008A84ED018AC5ED001AF0EE481A98
:1026000040EEE89A41EE481A00EEC89A40EE80AAE1
:10261000C5ED011AC5ED029A85ED039A84ED04AA71
:10262000C4ED03AABDEC0A8B70BD000000000020C1
:1026300070B54D4E2DED0A8BB0EE419AF0EE619AD9
:10264000B0EE40BAF0EE60BA96ED07CA1CEE100A82
:10265000FDF79AFF06F1800441EC180BD4ED0DAAAA
:102660001AEE900AFDF790FF53EC192BFDF797FE39
:1026700053EC182BFDF796FE41EC180BA06BFDF701
:1026800083FF53EC182BFDF7E6FDFDF790FF04F1F7
:10269000AC0596ED040A95ED018A95ED029AD5ED0B
:1026A000008A30EE480AD5ED039A0AEE100A30EEA1
:1026B000490A09EECC8A09EECC9A1AEE100A40EECD
:1026C0000C8A96ED050A40EE0C9AFDF75DFF53EC7F
:1026D0001B2BFDF764FEFDF76AFF00EE900AC4EDC8
:1026E0000C0A96ED060A38EE800A84ED110A30785D
:1026F00001EE100AB8EE411A68EE811A01EE100AD6
:10270000C4ED0F1AB8EE411A29EE012A81EE801AA3
:1027100084ED102AC2EE001AB0EE680A84ED081AA1
:1027200001EE680A01EE20AAC4ED091AC4ED0A8A76
:1027300084ED0B8A85ED000AB0EE480A01EEE89AB6
:1027400001EE480A41EEC89A41EEA0AA85ED010AC1
:1027500085ED029AC5ED039A84ED0EAAC4ED0DAA8B
:10276000BDEC0A8B70BD000000000020F0B585B004
:10277000012504A8CDE900054FF47A742B46752293
:10278000D02102941E48FEF743FB9DF810006828F4
:1027900033D1002703AE8DF80C700096CDE90154BB
:1027A00001236B22D0211648FEF72EFC07208DF85E
:1027B0000C000096CDE9015401231922D0211048C4
:1027C000FEF722FC8DF80C700096CDE90154012330
:1027D0001C22D0210A48FEF717FC8DF80C700096D9
:1027E000CDE9015401231B22D0210548FEF70CFC42
:1027F000002269030348FEF73CFA05B0F0BD000073
:102800004C010020000802402DE9F0414FF006087D
:102810002DED028B88B005A9CDE900184FF47A7729
:1028200001233B220297D0213148FEF7F1FABDF88F
:102830001400304C40BA00B2A080BDF8161049BA5E
:102840000EB2E680BDF8181049BA0DB22581FDF729
:102850008AFE9FED298B53EC182BFDF7A3FDFDF7A6
:10286000A6FE60663046FDF77EFE53EC182BFDF7A2
:1028700099FDFDF79CFEA0662846FDF774FE53EC1B
:10288000182BFDF78FFDFDF792FEE06603A9CDE959
:102890000018012343220297D0211548FEF7B8FA09
:1028A000BDF80C0040BA00B26081BDF80E1049BA04
:1028B0000DB2A581BDF8101049BAE181FDF753FEB4
:1028C0009FED0F8B53EC182BFDF7DEFDFDF76FFE30
:1028D000E0652846FDF747FE53EC182BFDF7D4FDC5
:1028E000FDF765FE206608B0BDEC028BBDE8F08107
:1028F0004C01002000000020000000000000103FFC
:1029000000000000006060402DE9F04387B0142112
:102910006846FDF795FC37480024016841F0040142
:102920000160016801F004010591016841F0800136
:102930000160016801F080010591016841F0010129
:102940000160016801F001010591016841F0020197
:1029500001600068284F00F002004FF40055059018
:10296000002229463846FEF784F9DFF890800022DD
:1029700080214046FEF77DF9DFF8849040F207465B
:10298000002231464846FEF774F900950125CDE94D
:102990000154694638460394FEF778F819480095C3
:1029A000CDE9010469464046FEF770F80220CDE902
:1029B0000004694640460294FEF768F880200090C3
:1029C000CDE90154694640460394FEF75FF800964E
:1029D000CDE90154694648460394FEF757F80022B2
:1029E00011460620FEF744FC0620FEF733FC07B034
:1029F000BDE8F08330380240000802400000024089
:102A0000000402400000111010B58EB0002407949D
:102A1000089409940A940B941C2168460C94FDF7C1
:102A20000FFC1E481C4901601321C0E9011440F24B
:102A3000E731C0E903148461FEF742FF08B172B6C2
:102A4000FEE74FF48050079007A91448FEF7D6FF21
:102A500008B172B6FEE71148FFF796F908B172B6F1
:102A6000FEE70B940BA90D480C94FEF7EBFE08B1A2
:102A700072B6FEE76020CDE90004029408226946A0
:102A800006480494FFF71DF908B172B6FEE7034843
:102A9000FFF7D4F80EB010BD00080040A0010020E0
:102AA00010B58CB000240794089409941C21684642
:102AB0000A94FDF7C5FB1A48184901601321C0E9C3
:102AC000011440F2E731C0E903148461FEF7F8FE17
:102AD00008B172B6FEE74FF48050079007A910487E
:102AE000FEF78CFF08B172B6FEE70D48FFF74CF910
:102AF00008B172B6FEE76020CDE90004029400221E
:102B0000694607480494FFF7DCF808B172B6FEE79F
:102B10000348FFF793F80CB010BD000000400140DF
:102B2000E8010020FEE7FEE716499FED171A01F1C4
:102B3000800091ED080AD0ED040A30EE600A80EDC5
:102B4000140AD0ED180A40EE010AC0ED180A91ED02
:102B5000091AD1ED0A1A21EE001A01EEA01AD0EDE1
:102B6000150AD1ED0B1A70EE600A60EEA10ADFEDD6
:102B7000071A00EEA11AFDEEC10AC0ED120A80ED9F
:102B8000150A7047000000200AD7233C0000C84205
:102B90001C499FED1D1A01F1800091ED100AD0ED46
:102BA0000E0A30EE600A80ED160AD0ED190A40EEEA
:102BB000010AC0ED190A91ED111AD1ED121A21EE98
:102BC000001A01EEA01AD0ED170AD1ED131A70EE1B
:102BD000600A60EEA10ADFED0D1A00EEA11AFDEE0B
:102BE000C10A10EE901AC16480ED170AB1F57A7F20
:102BF00002DB40F2E73103E011F57A7F01DC0449A2
:102C0000C1647047000000200AD7233C0000C8427E
:102C100019FCFFFF10B5264CE06EFDF7A4FC9FEDFC
:102C2000251B53EC112BFDF7BDFBFDF7C0FC00EE9F
:102C3000900A0020C4ED1D0AE066A4F180009FED1B
:102C40001F1A90ED140A00F5807120EE010A9FED25
:102C50001C1A00EE810A9FED1B1A84ED1C0A80ED00
:102C6000140AD0ED0C0A30EEC00A81ED000AD4ED52
:102C70001E0A40EE010AC4ED1E0A90ED0D1AD0EDB9
:102C80000E1A21EE001A01EEA01AD4ED1F0AD0EDA3
:102C90000F1A70EE600A60EEA10AF3EE091A00EE58
:102CA000A11AFDEEC10AC1ED010A84ED1F0A10BD93
:102CB000800000202F6EA301BC451B403333333FFF
:102CC0009A99993E0AD7233D2DE9F0411B4C1B48A8
:102CD00080344FF47A77806C6168194B08447D1E0C
:102CE000184EE060002812DD4FF001024FF00201A3
:102CF00098461846FDF7BDFF002201214046FDF72A
:102D0000B8FFE068B84200DBE560E06812E013DA83
:102D1000404220610022022198461846FDF7A9FF93
:102D2000012211464046FDF7A4FF2069B84200DBAE
:102D30002561206931684863BDE8F081800000208A
:102D400000040240E80100202DE9F0411A481A4C25
:102D50004FF47A77C06C8034184B7D1E184E4FF4B8
:102D600080616061002810DD4FF00102984618462E
:102D7000FDF77FFF002204214046FDF77AFF6069DE
:102D8000B84200DB6561606911E012DA4042A0617F
:102D9000002298461846FDF76CFF012204214046A8
:102DA000FDF767FFA069B84200DBA561A069316843
:102DB000C863BDE8F08100008000002000040240EC
:102DC000A001002070477047FEF7EAB930B593B014
:102DD00030216846FDF734FA14210CA8FDF730FACB
:102DE0001D480024016841F080510160006800F036
:102DF000805011901948016821F4404141F400418C
:102E000001600068022500F4404011900120039009
:102E100010200490009506950820CDE90740542025
:102E2000CDE9090504200B906846FEF73FFB08B189
:102E300072B6FEE70F20CDE90C054FF48050CDE9C6
:102E40000E4002210CA81094FEF744FA002801D08D
:102E500072B6FEE713B030BD40380240007000404B
:102E60000248016841F470010160704788ED00E09C
:102E70000148FEF72FBE000030020020F0B50268C6
:102E80001D4B1E4C9F031E4D1E4E984207D0B8424C
:102E900005D0A04203D0A84201D0B04204D122F014
:102EA000700C4A6842EA0C02984210D0B8420ED028
:102EB000A0420CD0A8420AD0B04208D0124CA04286
:102EC00005D0124CA04202D0114CA04203D122F4F2
:102ED0004074CA6822434C6922F080022243026097
:102EE0008A68C2620A688262984201D109690163F4
:102EF00001214161F0BD00000000014000040040DC
:102F000000080040000C0040004001400044014027
:102F10000048014010B501F01F030121046A9940E7
:102F20008C430462016A9A401143016210BD10B5DE
:102F3000846842EA032224F47F440A4322438260E5
:102F400010BD826822F070020A4342F007018160DE
:102F50007047000030B5026A22F001020262026A84
:102F60004368846924F073050C682C4322F0020541
:102F70008A682A430A4DA8420BD122F00805CA6884
:102F800023F440732A434D6922F004021D438B69E8
:102F90002B434360846149684163026230BD000095
:102FA0000000014030B5026A22F010020262026A9B
:102FB000436884690D6824F4E64444EA05248D6876
:102FC00022F0200242EA05120B4DA8420ED1CD6834
:102FD00022F0800242EA05124D6923F4406343EA7D
:102FE00085038D6922F0400243EA850343608461D2
:102FF00049688163026230BD0000014030B5026A59
:1030000022F480720262036A4268C46923F4007386
:1030100024F073050C682C438D6843EA05230C4D9E
:10302000A8420ED1CD6823F4006343EA05234D691D
:1030300022F4405242EA05128D6923F4806342EA89
:1030400005124260C4614968C163036230BD00007B
:103050000000014030B5026A22F480520262046A24
:103060004268C3690D6823F4E64343EA05238D688B
:1030700024F4005444EA0534064DA84204D14D69B5
:1030800022F4804242EA85124260C36149680164C9
:10309000046230BD0000014010B5036A046A24F0E8
:1030A00001040462846924F0F00444EA021423F069
:1030B0000A020A438461026210BD10B5036A23F05C
:1030C000100303628369046A23F4704343EA023203
:1030D00024F0A00343EA01118261016210BD0000E7
:1030E00070B5044600680169E26821F4405111435B
:1030F00001612169A068E2690843616911430843DD
:103100002168CA6849F20C639A430243CA60206886
:103110004169A26921F4407111434161314920683C
:10312000884202D03049884202D1FEF77DF901E0A1
:10313000FEF76AF9E2690023192164253226B2F507
:10314000004F626828D0A0FB0101930F9200FDF7A9
:103150003FF80146B0FBF5F06FF01802504301EB69
:10316000800006EB0010B0FBF5F000F0F002B1FBC0
:10317000F5F002EB0012B1FBF5F06FF018035843C5
:1031800001EB800006EB0010B0FBF5F000F00F0043
:1031900021681044886070BDA0FB010192185B415A
:1031A000FDF716F80146B0FBF5F00201B1FBF5F0B2
:1031B0006FF01803584301EB800006EBC000B0FB32
:1031C000F5F000F0F80002EB4002B1FBF5F05843D7
:1031D00001EB800006EBC000B0FBF5F000F007004B
:1031E000D6E7000000100140001401402DE9F04135
:1031F000984617460E460446069D1DE0681C1BD0E7
:103200002DB1FDF73BFDA0EB0800A84214D92068C2
:10321000C16821F4D071C1602068416921F00101C9
:103220004161202084F83D0084F83E00002084F8AD
:103230003C000320BDE8F0812068006836EA000009
:1032400004D00020B842D9D00020F3E70120F9E7EC
:10325000FEE700000FB4084B10B504A902AA0398BA
:1032600000F00CFB044602A9002000F08AFE204674
:1032700010BC5DF814FB0000833F000803B4019804
:103280004100009850EAC12018BF04204A0D18BF21
:1032900040F0010040F2FF72B2EB515F08BF40F016
:1032A0000200012808BF052002B070470907090E77
:1032B000002804DB00F1E02080F80014704700F0E3
:1032C0000F0000F1E02080F8141D7047000000009E
:1032D00070B59B482DED020B2DED068B079D25F05B
:1032E0000044A04218DC9748844202DC0AD10698C8
:1032F00040B19DED060BBDEC068B02B0BDE8704001
:1033000000F0CEB9002DCCBF9FED8F0B9FED900B41
:10331000BDEC068B02B070BD8F48A04215DD8F4812
:10332000A042D8BF4FF0FF3458DD9DED060B51ECA5
:10333000100BFFF7A3FF042808BF00F0BDF99DEDB7
:10334000060BBDEC068B02B070BD9DED060B51EC7B
:10335000100B00F01BFECDE9060181489FED828B2A
:10336000A0423CDD8248A0421FDD00249FED82ABDD
:103370009DED060B53EC1A2B51EC100BFCF76BFF79
:103380009DED060B41EC190B53EC1A2B51EC100B75
:10339000FDF708F853EC182BFCF7FEFF53EC192B44
:1033A000FDF772F8CDE9060149E09DED060B012419
:1033B00053EC182B51EC100BFCF74DFF9DED060B59
:1033C00041EC190B53EC182B51EC100BFCF7E4FFFC
:1033D00053EC192BFDF758F8CDE906012FE06848AA
:1033E000A0421FDD02249FED689B9DED060B53EC70
:1033F000192B51EC100BFCF7D5FF53EC182BFCF7F5
:103400002AFF9DED060B41EC180B53EC192B51ECE8
:10341000100BFCF7C1FF53EC182BFDF735F8CDE985
:1034200006010CE09DED060B032453EC102B9FEDE1
:10343000580B51EC100BFDF727F8CDE906019DED77
:10344000060B53EC102B51EC100BFCF7ABFF41ECCF
:10345000180B53EC182BFCF7A5FF41EC190B4E4849
:103460000621B0EE490AF0EE690A784400F09CF8B3
:1034700053EC182B51EC100BFCF794FF41EC180B9C
:103480004648B0EE490AF0EE690A0521784400F09A
:103490008BF853EC192B51EC100BFCF783FF41EC2C
:1034A000100B51EC180B53EC102B002C0EDAFCF720
:1034B000D2FE9DED061B53EC112BFCF773FF9DED27
:1034C000061B53EC112BFCF76AFF35E0FCF7C3FE3B
:1034D0009DED061B53EC112BFCF764FF41EC100B28
:1034E0002F48784400EBC40090ED001B51EC100B0A
:1034F00053EC112BFCF750FF9DED061B53EC112BE9
:10350000FCF74AFF41EC100B2648784400EBC4005E
:1035100090ED001B51EC100B53EC112BFCF73FFF0F
:1035200041EC100B002DA2BFBDEC068B02B070BDAC
:1035300051EC100B81F0004141EC100B01E7000051
:10354000000010440000F07F182D4454FB21F93F87
:10355000182D4454FB21F9BF0000DC3F0000203E41
:103560000000F33F00000000000000000000F03FFA
:103570000000E63F000000000000000000000040E6
:103580000080034000000000000000000000F83F41
:10359000000000000000F0BFC20C0000780C00002A
:1035A000020C0000BA0B000070B504462DED028B32
:1035B0004D1E00EBC500B0EE408AF0EE608A90ED43
:1035C000000B35F0060017D053EC182B51EC100B04
:1035D000FCF7E8FE41EC100B6D1E04EBC50090ED0E
:1035E000001B51EC100B53EC112BFCF734FE41EC9B
:1035F000100B35F00600E7D1022D36D0042D1CD07B
:10360000062D1CBFBDEC028B70BD53EC182B51EC8A
:10361000100BFCF7C7FE94ED0A1B53EC112BFCF7C3
:103620001AFE53EC182BFCF7BDFE94ED081B53EC6F
:10363000112BFCF710FE41EC100B53EC182B51EC46
:10364000100BFCF7AFFE94ED061B53EC112BFCF7AF
:1036500002FE53EC182BFCF7A5FE94ED040B53EC83
:10366000102BFCF7F8FD41EC100B53EC182B51EC30
:10367000100BFCF797FE94ED021B53EC112BFCF79B
:10368000EAFD53EC182BFCF78DFE94ED001B53EC78
:10369000112BFCF7E0FDBDEC028B41EC100B70BD73
:1036A00010B553EC102B51EC100BFCF7D4FD41EC92
:1036B000100B10BD000000009FED050B10B553EC82
:1036C000102B51EC100BFCF76DFE41EC100B10BDF4
:1036D000000000000000001002E008C8121F08C12E
:1036E000002AFAD170477047002001E001C1121F83
:1036F000002AFBD1704700002DE9FF5F82B0002156
:10370000DDE90430020DDDF840B0034318D044F683
:103710001050A2F2FF3242431514119801281FD015
:10372000A5EB0B00401C5FEA000A4FF000064E4F6D
:10373000DFF83891B046504615D5CAF1000413E0C1
:10374000119801244AA3012801D16FEA0B010298C4
:10375000119AC0E90031C0E9024206B0BDE8F09F0D
:10376000CBF10000DFE704460021404A491842EB54
:103770000450CDE9001012E0E00707D032463B4686
:1037800040464946FCF70EFE8046894632463B4697
:1037900010461946FCF706FE06460F466410002C3C
:1037A000EAD1DDE90401DDE90023BAF1000F06DA10
:1037B000FCF7F8FD42464B46FCF7F4FD05E0FCF74C
:1037C00063FE42464B46FCF75FFE04460E4600226F
:1037D000284BFCF7FBFF03D84FF0FF30014607E012
:1037E0000022254B20463146FCF735FDFCF7D6FF7D
:1037F000102409E0002C0ADB0A220023FCF7E8FC75
:10380000039B30321A55641E50EA0102F2D1641C47
:10381000039AC4F111031444119A012A03D001221E
:1038200008430DD10AE0084304D000204FF0110BEB
:10383000119072E7A3EB0B056D1E0DE05B4504DDF7
:103840004FF0000205F1010504E003DA4FF0000239
:10385000A5F10105002AECD002981199C0E90231C6
:10386000C0E9004579E70000000014400000F03F87
:10387000300000000000F0430000E03F2DE9FF4F62
:1038800095B09A46884606460025EEE1252877D170
:1038900000242746F94A0121039400E0044316F866
:1038A000013F203B01FA03F01042F7D130782A287B
:1038B00011D06FF02F033078A0F13002092A16D80A
:1038C000039A44F0020402EB820203EB420210442A
:1038D000761C0390EFE758F8042B0392002A03DAD2
:1038E000504244F40054039044F00204761C3078B3
:1038F0002E2816D116F8010F44F004042A280DD002
:103900006FF02F023078A0F13003092B09D807EBB4
:10391000870302EB4303C718761CF3E758F8047BD0
:10392000761C30786C280FD006DC4C2817D068281D
:103930000DD06A2814D104E0742810D07A280FD151
:103940000DE044F400140AE044F4801401E044F46F
:1039500040147278824202D104F58014761C761CE1
:10396000307866280BD013DC582877D009DC002883
:1039700075D04528F6D04628F4D047281AD193E1CF
:1039800018E0632835D0642879D0652812D18BE1FE
:10399000702873D008DC6728F1D069286FD06E28B2
:1039A0000DD06F2806D1ACE073282CD0752874D0C8
:1039B000782853D05246179990476D1C54E1C4F3B0
:1039C0000250022809D003280DD0D8F8001004288E
:1039D0000DD00D6008F1040846E1D8F80010EA1790
:1039E000C1E90052F6E7D8F800100D80F2E70D703B
:1039F000F0E718F8041B8DF8001000208DF8010086
:103A0000EB46012003E058F804BB4FF0FF3061079C
:103A10004FF0000102D40DE009F101018946B942DD
:103A20000FDA8145F8DB1BF809100029F4D108E012
:103A300009F1010189468142FADB1BF809100029CE
:103A4000F6D103985346A0EB090721463846179A4A
:103A500000F080FA284400EB090507E044E008E1A3
:103A60000DE01BF8010B524617999047B9F1010977
:103A7000F7D2534621463846179AF2E039E00A2138
:103A8000C4F302524FF0000B0091022A06D058F8FE
:103A9000040BC117032A09D00AE023E008F107004C
:103AA00020F00702F2E80201904605E000B2C117DB
:103AB000042A01D140B2C117002906DA0A460021C2
:103AC000404261EB02012D2202E0220504D52B22A7
:103AD0008DF80420012203E0E20701D02022F7E75D
:103AE000914657E00A2100E010214FF0000B0091B1
:103AF0000BE010214FF0000B44F004040827009164
:103B000003E008204FF0000B0090C4F30252022A99
:103B100005D058F8040B0021032A08D008E008F16A
:103B2000070020F00702F2E80201904603E080B2AD
:103B3000042A00D1C0B24FF0000922072AD53278FA
:103B4000702A07D0DDF800C08CF0100C5CEA0B0C7A
:103B500005D00EE040228DF80420012208E050EA52
:103B6000010306D030238DF804308DF805200222A1
:103B70009146009B83F0080353EA0B030AD150EAF5
:103B8000010201D1620705D530228DF804204FF0E3
:103B900001097F1E3278582A04D039A20C920CAA4F
:103BA00002920BE03BA2F9E75B46009AFCF710FBA0
:103BB0000C9B9B5C029A521E0292137050EA010207
:103BC000F2D1029804A9081A00F1200B600702D56F
:103BD00024F4803400E001275F4502DDA7EB0B00F1
:103BE00000E0002000EB0B01009003984944401ACC
:103BF0000390E00306D453462146179A039800F039
:103C0000A9F90544002706E001A85246C05D1799AE
:103C100090476D1C7F1C4F45F6DBE0030CD55346E7
:103C20002146179A039800F095F9054404E03020E6
:103C30005246179990476D1C0099481E0090002924
:103C4000F5DC08E00298029952460078491C02917E
:103C5000179990476D1CBBF10001ABF1010BF1DC32
:103C60005BE100F065F90544761C307800287FF4AC
:103C70000DAE19B02846BDE8F08F000009280100FC
:103C800030313233343536373839616263646566D2
:103C90000000000030313233343536373839414294
:103CA0004344454600000000600700D4062708F1A1
:103CB000070020F00700F0E80223804603F0004CE4
:103CC0005FEA0C0001D097A009E0200501D596A07D
:103CD00005E0E00701D095A001E0AFF24C001390A1
:103CE000307823F0004365280CD006DC452809D045
:103CF00046281DD047287FD13BE0662818D067288A
:103D00007AD136E00021112F01DB112000E0781C70
:103D1000CDE9000104A90CA8FFF7EEFCDDE90D01D7
:103D20000C9A4FF0000B07F10109109200914EE040
:103D30004FF000400097CDE9011004A90CA8FFF74F
:103D4000DBFCDDE90D020C9B0F994FF0000B914657
:103D50001093009211B9791C00EB0109B7EB09002F
:103D600003D4C0F1FF3B07F10109A9EB0700019063
:103D700042E0012F00DA01270021112F01DD11207F
:103D800000E03846CDE9000104A90CA8FFF7B4FC17
:103D9000DDE90D010C9A00914FF0000BB94610922D
:103DA00021070FD4009A4A4503DA914601E0A9F1B0
:103DB0000109B9F1010F05DD109AA9F10101515C6A
:103DC0003029F4D0B84202DA10F1040F03DA0121ED
:103DD000CDE9011010E0002803DC8344A9EB0001C9
:103DE00002E0411C494500DD8946A0EB0B00401C68
:103DF00001904FF000400290200705D401984845FB
:103E000002DB4FF0FF30019000208DF84B0002984C
:103E10000DF14B07B0F1004F25D002200C902B2064
:103E20000D90029800280CDA404202902D200D904F
:103E300007E00A210298FCF7D6FB3031029007F820
:103E4000011D0C99481E0C900029F2DC02980028F4
:103E5000EFD1791E0D980870307800F0200040F006
:103E6000450007F8020D11A8C01BC01D0290139851
:103E7000007800B1012000EB0901019801EBE0712D
:103E8000029801440398401A401E0390E00306D4B0
:103E900053462146179A039800F05CF8054413989E
:103EA000007818B15246179990476D1CE00323D54E
:103EB00053462146179A039800F04CF805441BE03E
:103EC000BBF1000F07DB0098584504DD10981799E7
:103ED00010F80B0001E017993020524690470198E6
:103EE0000BF1010B401E05F10105019004D12E20BC
:103EF0005246179990476D1CB9F10001A9F10109CB
:103F0000DEDC05E017F8010B5246179990476D1C4F
:103F10000299481E02900029F4DC53462146179A64
:103F200003989EE62D0000002B00000020000000FA
:103F30002DE9F041044600251E461746880404D4A6
:103F400005E039462020B0476D1C641EF9D528468F
:103F5000BDE8F0812DE9F041044600251E4690465B
:103F6000C80301D5302700E02027880404D505E0E8
:103F700041463846B0476D1C641EF9D52846BDE859
:103F8000F0810A68531C0B601070704782B0CDE955
:103F9000000121F0004001909DED000B02B051ECBA
:103FA000100B7047FDF704F9FEF710FFFEF7ACFCAD
:103FB000FEF776FD354834490024016042F2D00115
:103FC000C0E901146321C0E9031480218161FDF778
:103FD00077FC08B172B6FEE72C482D49E438016041
:103FE0002C49C0E901144FF48041C0E90341446108
:103FF0008461C4610462FCF747FE08B172B6FEE753
:1040000022482549483001604FF41651C0E9011497
:104010000C21C460C0E904418461C461FDF761FF03
:1040200008B172B6FEE7FEF7EFFCFEF79FFB1748FC
:10403000FDF7AEFC154808219038FDF7D5FE134872
:1040400000214838FDF7D0FE144D154C154EDFF811
:1040500058804FF4967700BFFCF772FC3846FCF7A7
:10406000DBFC2069A84206DCB04204D8A06BA84261
:1040700001DCB04201D9002200E00122802140464B
:10408000FCF7F7FDE8E700000044014030020020A3
:1040900000540040A086010000100140000034429E
:1040A00080000020000034C2000002400000000038
:1040B00000000000010203040607080900000000D8
:1040C00001020304000000004FBB610567ACDD3F47
:1040D000182D4454FB21E93F9BF681D20B73EF3F2F
:1040E000182D4454FB21F93FE2652F227F2B7A3CA7
:1040F000075C143326A6813CBDCBF07A8807703C60
:10410000075C143326A6913CC4EB98999999C9BFD2
:10411000711623FEC671BCBF6D9A74AFF2B0B3BF07
:104120009AFDDE522DDEADBF2F6C6A2C44B4A2BFC7
:104130000D5555555555D53FFF8300922449C23F33
:104140006E204CC5CD45B73F513DD0A0660DB13F67
:10415000EB0D76244B7BA93F11DA22E33AAD903F79
:1041600080410008000000204C01000020080008E9
:10417000C44100084C01002074050000E836000826
:104180001201D22F30096F12833AA69B443B200ABA
:104190003F0AD7233C666646C02BFA420C650AD715
:1041A000A3BC23B04137404117B7D13822BF2BB44D
:1041B000420C192402CE3DCB803F0CC91032018243
:0441C000101324F4C0
:040000050800019559
:00000001FF
